:020000020000FC
:020000003FC0FF
:0200340035C1D4
:02002C003AC1D7
:020030005AC1B3
:0200400053C1AA
:1000800080E080931501809316018093170180937F
:100090001801239A249A259A539A519A529A219A8E
:1000A000229A559A569A3B9A3C9A0E94A4010E9421
:1000B00087010E948001789400C0309993C00E940B
:1000C000FA000E940F010E9468000E94AD00F5CF67
:1000D00032990E9479004C990E946F000895009116
:1000E000950011E0011709F0089543982C9A2D9876
:1000F00008950091120111E0011761F000911101C2
:1001000011E0011709F008950E94C30101E0009376
:1001100012010895009116011FEF011731F00091AF
:1001200015010395011789F0089500E0009315016A
:10013000009316010093120131E030931101439AAC
:100140000E94C7012C982D98089500E00093150196
:10015000009116010395009316014C990E94BE0070
:1001600032990E94B40008950091DA0011E001175D
:1001700009F008954498599A5A98089500911401E5
:1001800011E0011761F00091130111E0011709F06E
:1001900008950E94CB0101E000931401089500919D
:1001A00018011FEF011731F0009117010395011796
:1001B00089F0089500E0009317010093180100935F
:1001C000140131E030931301449A0E94C7015998F9
:1001D0005A98089500E000931701009118010395C3
:1001E0000093180180E08093B3008093B40043989B
:1001F000449863CF81E480937C0087EC80937A00FD
:1002000010E400917A0010640123D9F7209178005E
:1002100030917900309304012093030108953091C7
:10022000040120910301AFEF522F632F669557957C
:1002300066955795452F2C9A2D985A9A59985DE7AF
:10024000451780F053E84517D0F053E8451B4A9F07
:10025000402D55276CE71AD000C04093B30040935F
:10026000B40008955CE7541B452F4A9F402D552745
:100270006CE70CD02C982D9A5A98599AEECF2C985E
:100280002D985A98599840E0E8CF08955527772738
:10029000A1E05395461B10F07A0FFBCF472F08952E
:1002A0001895009105010395009305011091060131
:1002B000011710F0299801C0299A10910701011720
:1002C00010F02A9801C02A9A10910801011710F025
:1002D0005D9801C05D9A10910901011710F05E98B8
:1002E00001C05E9A1895189510911001139514315C
:1002F00020F010E020E020930501109310011895E4
:1003000083EA8093B00084E08093B100089508E010
:100310000093810002E008600093810000E00093F8
:10032000890003E10093880002E000936F0000E081
:100330000093050114E61093060110930701109332
:10034000080110930901089500E00093440003E0C0
:100350000093450001E000936E0003E00093260047
:1003600000931001089518EC10930601089514E607
:1003700010930601089518EC10930701089514E6F0
:1003800010930701089518EC10930801089514E6DE
:1003900010930801089518EC10930901089514E6CC
:0603A0001093090108950D
:00000001FF
